:0400000007EF00F016
:10000800248209ED00F0F1EF00F00600FACF05F0C8
:10001800FBCF06F0E9CF07F0EACF08F0E1CF09F00F
:10002800E2CF0AF0D9CF0BF0DACF0CF0F3CF0DF016
:10003800F4CF0EF0F6CF0FF0F7CF10F0F8CF11F0A5
:10004800F5CF12F024C013F025C014F026C015F027
:1000580027C016F09DB09EA02ED01B501C10D8B4FF
:100068002AD00B0ECF6EDB0ECE6E23BE0AD0590EF1
:10007800225C020E2358D8A004D0FF0E216EDA0E9F
:100088000ED023BE05D023500BE12204D8B008D0EF
:10009800000E236E010E226E000E216E260E206EBB
:1000A80022C001F023C002F0CCEC00F02050222640
:1000B800215023229E901B501C10D8A404D0000E5F
:1000C8001C6E010E03D0000E1C6E000E1B6E16C0B7
:1000D80027F015C026F014C025F013C024F012C074
:1000E800F5FF11C0F8FF10C0F7FF0FC0F6FF0EC0F4
:1000F800F4FF0DC0F3FF0CC0DAFF0BC0D9FF0AC034
:10010800E2FF09C0E1FF08C0EAFF07C0E9FF06C037
:10011800FBFF05C0FAFF24921100948C948E9590F1
:100128009592B886AC84190EAF6EAC98AB8E9E884B
:100138009E9AAC8AAB889D889F889D8A9F8AC19A1F
:10014800C198C150F00B0109C16EC294C296C29801
:10015800C29A9280C08EC050C70B0809C06EC0906A
:10016800C092C094C280D08EF28EF28C950ECD6E65
:100178000C0EBD6E070ECA6ED38CD39AD398949486
:100188009D809F809E900B0ECF6EDB0ECE6E120070
:10019800D8900230046E0130036E010E0316033A44
:1001A8000346BD500318DF0B0318BD6E01C003F0F2
:1001B800010E0316033ABD500318EF0B0318BD6E6A
:1001C80001C003F002C004F0D89004320332D89082
:1001D800043203320350BE6E12005E0EF66E020E3B
:1001E800F76E000EF86E00EE20F010EE04F0090035
:1001F800F5CFEEFFE550E150FAE11F6A1E6A1D6A6D
:100208001C6A1B6A2490249200011DEF01F0C2B2FF
:10021800FED7C282C3CF1DF01E6AC4CF17F0030EEB
:1002280017161750196E186A18501D1219501E12F9
:1002380012009B0E176E000E186E000E196E000E3F
:100248001A6E2CEC01F091EC00F00BEC01F0FDD7EC
:0A02580017C0CBFF120026000100C2
:020000040020DA
:08000000FFFFFFFFFFFFFFFF00
:020000040030CA
:0E000000FF081B1EFF8381FF0FC00FE00F40A3
:00000001FF
