:020000040000FA
:10000000010101EE20F02D0EEE6E200EEE6E8A0E36
:10001000EE6EB50EEE6E6E0EEE6EF70EEE6E570EC7
:10002000EE6E2B0EEE6E900EEE6E050EEE6ECF0E99
:10003000EE6EE50EEE6E9C0EEE6E610EEE6E580EDE
:10004000EE6E010EEE6E01EE20F011EE21F0E9CF22
:10005000E1FFEACFE2FF06D8E92AE9A827EF00F09E
:1000600043EF00F0EF50E7643BEF00F0E12AE1A836
:1000700032EF00F0120000C030F101C000F030C1DA
:1000800001F036EF00F0010101EE20F011EE21F059
:10009000E1A84DEF00F05FEF00F0E650EE6053EFA7
:1000A00000F048EF00F0450E606F520E616F520E87
:1000B000626F4F0E636F520E646F6DEF00F0430E70
:1000C000606F4F0E616F520E626F520E636F450E7E
:0C00D000646F430E656F540E666F0000F5
:0200DC00000022
:00000001FF
